S012000050756C736F6D6574726F2E73726563D8
S11300000C9434000C9451000C9451000C94510045
S11300100C9451000C9451000C9451000C94510018
S11300200C9451000C9451000C9451000C94C90090
S11300300C9451000C9451000C9451000C945100F8
S11300400C9451000C9451000C9451000C945100E8
S11300500C9451000C9451000C9451000C945100D8
S11300600C9451000C94510011241FBECFEFD8E022
S1130070DEBFCDBF11E0A0E0B1E0E2E0F7E002C0F6
S113008005900D92A031B107D9F721E0A0E1B1E0CC
S113009001C01D92AA33B207E1F70E94F3000C9449
S11300A07F030C9400008BB9289829982A9A85E03C
S11300B08A95F1F700002A988FE891E00197F1F70B
S11300C000C0000008958BB9289A29982A9A85E0DF
S11300D08A95F1F700002A988FE891E00197F1F7EB
S11300E000C0000008958FEF8AB984B92A988FE37D
S11300F09FE10197F1F700C0000088E30E945300DC
S11301008EE00E94530081E00E9453008FE39FE140
S11301100197F1F700C0000086E00E9453000895A3
S1130120CF93DF9300D000D0CDB7DEB790E89983AA
S113013090EC9A8394E99B8394ED9C83FE01E60FF3
S1130140F11D81509081890F0E9453008FE891E046
S11301500197F1F700C000000F900F900F900F90DF
S1130160DF91CF9108950F931F93CF93FC0180816A
S1130170882359F08F01C0E00E946300CF5FF8012B
S1130180EC0FF11D80818111F7CFCF911F910F9159
S113019008951F920F920FB60F9211248F939F937D
S11301A08091790090E090931F0180931E0187EC69
S11301B080937A0080911E018093C6001092800083
S11301C08CE0809381008DE790E090938900809388
S11301D0880082E080936F009F918F910F900FBEF3
S11301E00F901F9018954F925F926F927F928F920B
S11301F09F92AF92BF92CF92DF92EF92FF920F93B2
S11302001F93CF93DF930E94730061E081E00E940B
S113021090008AE091E00E94B30062E081E00E94D5
S1130220900080913601909137010E94B3008FEFC6
S113023084B917B888E08093C10087E690E0909372
S1130240C5008093C400109280008CE080938100EC
S11302508DE790E0909389008093880082E08093FA
S11302606F0080EE80937C0087EC80937A00789412
S11302700F2EF5E0EF2EF12CF02D0F2EF0E26F2E65
S1130280F1E07F2EF02D0F2EFAE04F2E512CF02DA1
S11302900F2EF0E68F2EFAEE9F2EA12CB12CF02D0E
S11302A0CC24C394D12C00E012E0F89486B1816090
S11302B090E09093390180933801809116019091D8
S11302C01701A0911801B09119010296A11DB11D49
S11302D08093160190931701A0931801B09319010C
S11302E04091160150911701609118017091190104
S11302F08091120190911301A0911401B091150104
S1130300EA01C81BD90B2091380130913901809141
S11303100201909103012817390714F5809108010F
S113032090910901B7010E941603CB01880F991F10
S1130330680F791F6C177D079CF420913801309168
S1130340390180910401909105012817390744F47B
S113035080913801909139019093050180930401B3
S1130360209138013091390180910201909103016B
S1130370821793079CF420913801309139018091C0
S11303800601909107018217930744F48091380184
S1130390909139019093070180930601CB3FD105D9
S11303A00CF4ABC0209138013091390180910201E5
S11303B090910301821793070CF09FC080911C0158
S11303C090911D01892B09F098C0809108019091AA
S11303D00901B7010E941603CB01880F991F680F0A
S11303E0791F6C177D070CF088C010921D011092C4
S11303F01C018091160190911701A0911801B091F0
S113040019014091120150911301609114017091EE
S11304101501841B950B9093090180930801809129
S1130420160190911701A0911801B09119018093C0
S1130430120190931301A0931401B09315018091BC
S1130440100190911101892B09F4CBC01092110174
S11304501092100180E090E0209108013091090190
S1130460FC01EE0FFF1FE05EFE4F318320830196F7
S11304708A30910589F78091340190913501892B57
S113048009F0B6C020E030E080E090E0A9014F5FC1
S11304905F4FFA01EE0FFF1FE05EFE4F6081718136
S11304A0220F331FF901E05EFE4F718360832081C8
S11304B03181820F931F9A014930510539F72091F8
S11304C0080130910901F301338B228B228933898E
S11304D0820F931FB2010E9416039B01770F440BF6
S11304E0550BC501B4010E942A03309337012093B0
S11304F03601D0921B01C0921A012091380130912B
S11305003901809102019091030128173907E4F51C
S113051080911C0190911D010197B1F510921D016C
S113052010921C0180910601909107012091040111
S113053030910501821B930B90930101809300017C
S11305404091000150910101209104013091050175
S1130550CA0199230CF4019695958795820F931FF0
S11305609093030180930201809102019091030111
S113057090930701809306018091020190910301F9
S11305809093050180930401C53CD94024F1109354
S113059003010093020110930701009306011093D5
S11305A00501009304018091160190911701A09117
S11305B01801B09119018093120190931301A09333
S11305C01401B0931501D0923501C09234011092F8
S11305D0110110921001789486B188B1817185B9A6
S11305E064CE8091340190913501892B09F44ACF6E
S11305F0109235011092340181E090E09093110142
S113060080931001789480E090E0DF91CF911F9166
S11306100F91FF90EF90DF90CF90BF90AF909F909D
S11306208F907F906F905F904F90089597FB072E67
S113063016F4009407D077FD09D00E94490307FC03
S113064005D03EF4909581959F4F089570956195DE
S11306507F4F0895052E97FB1EF400940E944103DA
S113066057FD07D00E945D0307FC03D04EF40C94A1
S1130670410350954095309521953F4F4F4F5F4F23
S1130680089590958095709561957F4F8F4F9F4FFA
S11306900895AA1BBB1B51E107C0AA1FBB1FA617C5
S11306A0B70710F0A61BB70B881F991F5A95A9F717
S11306B080959095BC01CD010895A1E21A2EAA1B44
S11306C0BB1BFD010DC0AA1FBB1FEE1FFF1FA217FE
S11306D0B307E407F50720F0A21BB30BE40BF50BFB
S11306E0661F771F881F991F1A9469F76095709584
S11306F0809590959B01AC01BD01CF010895F894BC
S1050700FFCF25
S1130702640000020002000258022042504D000020
S9030000FC
